:020000040800F2
:100000000000012005150008E90F0008F10F0008A5
:10001000F90F000801100008091000080000000096
:1000200000000000000000000000000011100008A7
:100030001D100008000000002910000835100008FD
:100040004D1500084D1500084D1500084D15000808
:100050004D1500084D1500084D1500084D150008F8
:100060004D1500084D1500084D1500084D150008E8
:100070004D1500084D1500084D1500084D150008D8
:100080004D1500084D1500084D1500084D150008C8
:100090004D1500084D1500084D1500084D150008B8
:1000A0004D1500084D1500084D1500084D150008A8
:1000B0004D1500084D1500084D1500084D15000898
:1000C0004D1500084D1500084D1500084D15000888
:1000D0004D1500084D1500084D1500084D15000878
:1000E0004D1500084D1500084D1500084D15000868
:1000F0004D1500084D1500084D1500084D15000858
:100100004D1500084D1500084D1500084D15000847
:100110004D1500084D1500084D1500084D15000837
:100120004D1500084D1500084D1500084D15000827
:1001300000000000000000000000000000000000BF
:1001400000000000000000000000000000000000AF
:10015000000000000000000000000000000000009F
:10016000000000000000000000000000000000008F
:10017000000000000000000000000000000000007F
:10018000000000000000000000000000000000006F
:10019000000000000000000000000000000000005F
:1001A000000000000000000000000000000000004F
:1001B000000000000000000000000000000000003F
:1001C000000000000000000000000000000000002F
:1001D000000000000000000000000000000000001F
:0401E0005FF8E0F1F3
:1001E40010B5054C237833B9044B13B10448AFF36D
:1001F40000800123237010BD7C000020000000005B
:100204007437000808B5034B1BB103490348AFF327
:10021400008008BD00000000800000207437000842
:1002240047F63003038002230A0F090130323A2AC9
:1002340000D30732C25201330A2BF5D170470000B4
:1002440080B58EB000AF07F11C0300221A605A601B
:100254009A60DA601A615A619A613B4600221A6018
:100264005A609A60DA601A615A619A61304B4FF0B1
:1002740020421A602E4B2F4A5A602D4B06229A6058
:100284002B4B0022DA602A4B00221A61284B1022E1
:100294005A61274B00229A61254B0022DA61244BD4
:1002A40000221A62224B00225A62214B4FF48052E0
:1002B4009A621F4B0022DA621D4B4FF480421A638C
:1002C4001B4B00225A631A4B00229A630723FB61DB
:1002D4000F233B621A237B620023BB621023FB6261
:1002E40011233B6300237B6304233B600F237B6068
:1002F4000423BB600023FB6010233B6111237B615B
:100304000023BB613A4607F11C031946084802F072
:1003140062FC0346002B01D000F0A9FD064BDB690B
:10032400054A43F48063D36100BF3837BD4680BDBE
:1003340098000020040100A00000014080B586B0B0
:1003440000AF07F1080300221A605A609A60DA606D
:100354001F4B1B68002B36D11D4B01221A601D4B0D
:100364005B691C4A43F4807353611A4B5B6903F461
:1003740080737B607B6841F20103BB600223FB60F6
:1003840003237B6107F108031946134801F048FA77
:100394004FF68073BB600223FB6003237B6107F18C
:1003A400080319460D4801F03BFA4CF23373BB6065
:1003B4000223FB6003237B6107F108031946084805
:1003C40001F02EFA00E000BF1837BD4680BD00BF23
:1003D400E00000200010024000200140001801400D
:1003E4000014014080B582B000AF7860FFF7A6FF2B
:1003F40000BF0837BD4680BD80B58AB000AF07F1A5
:10040400180300221A605A609A60DA60314B9B69C3
:10041400304A43F0080393612E4B9B6903F00803B1
:100424007B617B692B4B9B692A4A43F480739361FC
:10043400284B9B6903F480733B613B69254B9B69A3
:10044400244A43F040039361224B9B6903F0400329
:10045400FB60FB681F4B9B691E4A43F020039361BA
:100464001C4B9B6903F02003BB60BB68194B9B6961
:10047400184A43F004039361164B9B6903F0040389
:100484007B607B68012241F20101134801F05CFBAF
:100494000123BB610123FB6100233B6202237B62D6
:1004A40007F1180319460C4801F0BAF94FF48053C8
:1004B400BB610123FB6100233B6203237B6207F1E1
:1004C40018031946044801F0ABF900BF2837BD46AC
:1004D40080BD00BF00100240000C014080B586B012
:1004E40002AF0023FB600023019301230093002348
:1004F40000220121002000F00BFB03461A46384B72
:100504001A70002301930123009300230122002188
:10051400002000F0FDFA03461A46324B1A700023FD
:10052400019301230093002300220021012000F005
:10053400EFFA03461A462C4B1A7000230193012349
:100544000093002301220121012000F0E1FA034677
:100554001A46264B1A7000F0B1FA2FE0244AFB68C1
:1005640013441B78184600F0B3FAFB680133204AA1
:10057400D35CFB71FB680233FB60FB790F2B04D95E
:10058400FB79184601F044F818E0FB79002B15D0EC
:100594000023BB600AE0FA68BB681344144AD35CC6
:1005A400184600F0A5FABB680133BB60FB79BA6852
:1005B4009A42F0D3FB79FA681344FB600C4AFB6857
:1005C40013441B78002BC9D1002000F015F8012238
:1005D4000121084801F0B8FA00BF1037BD4680BDBC
:1005E400E8000020E9000020EA000020EB000020E1
:1005F40090440008000C014080B584B000AF03466D
:10060400FB80114B1B88013B9AB20F4B5B88013B6B
:100614009BB20021002000F005FA0B4B1B881A4600
:10062400094B5B8802FB03F3FB6003E0FB8818467D
:1006340000F05EFAFB685A1EFA60002BF6D100BF88
:1006440000BF1037BD4680BD0800002080B582B0D1
:1006540000AF0346FB800B46BB8013467B800C4BEC
:100664001B88FA889A420FD2094B5B88BA889A424F
:100674000AD2BB88FA88B988F88800F0D3F97B8855
:10068400184600F035FA00E000BF0837BD4680BDCB
:100694000800002090B585B000AF04460846114616
:1006A4001A462346FB800346BB800B46FB70134669
:1006B4003B80B7F906304A4A1288934280F28C8014
:1006C400B7F90430464A5288934280F28580B7F9DC
:1006D4000630444A926892881344002B7CDBB7F9B5
:1006E4000430404A9268D2881344002B74DB3D4B9B
:1006F4009B68DB88DB089BB2BB720023FB7300237F
:10070400BB7361E000233B7355E0364B9B681B6869
:10071400FA78203A33498968C98801FB02F2B97A28
:1007240002FB01F1BA7BB87A00FB02F211443A7B76
:100734000A4413441B787B730023FB7232E097F95D
:100744000D30002B12DAFB7A9AB2FB8813449AB26A
:10075400FB7B9BB2134498B2BB7B9AB2BB88134415
:100764009BB23A881946FFF771FF15E03A8C3B8833
:100774009A4211D0FB7A9AB2FB8813449AB2FB7B5B
:100784009BB2134498B2BB7B9AB2BB8813449BB20E
:100794003A8C1946FFF75AFF7B7B5B007B73FB7A2D
:1007A4000133FB72FB7A072BC9D9FB7B0833FB733C
:1007B4003B7B01333B733A7BBB7A9A42A5D300233C
:1007C400FB73BB7B0133BB73BB7B9AB2054B9B684A
:1007D400DB889A4296D300E000BF1437BD4690BD33
:1007E40008000020100000200FB490B585B002AFBF
:1007F40007F11C033B603A68B9693D4802F01EFBEF
:100804003B4B7B6067E07B681B780A2B0CD1394B30
:100814005A88394B9B68DB8813449AB2354B5A800B
:10082400344B00221A804AE07B681B780D2B46D09B
:100834007B681B78092B0BD12E4B1A882E4B9B6897
:100844009B889B009BB213449AB22A4B1A8036E0D1
:10085400284B1B8818B2274B5B8819B27B681A781F
:10086400254B1B689CB2244B5B689BB200932346C8
:10087400FFF710FF1F4B1A881F4B9B689B8813447C
:100884009AB21C4B1A801C4B1B7B002B17D0194BA4
:100894001B881A46194B1B881946174B9B689B8863
:1008A400CB1A9A420BDD134B5A88134B9B68DB8897
:1008B40013449AB20F4B5A800E4B00221A807B6865
:1008C40001337B600B4B5A880C4B5B889A4202D3F2
:1008D400084B00225A807B681B78002B93D100BF01
:1008E40000BF0C37BD46BDE8904004B0704700BF60
:1008F400EC000020E400002010000020080000208C
:1009040080B483B000AF7860034A7B68936000BF13
:100914000C37BD4680BC70471000002080B582B003
:1009240000AF0346FB712D4AFB791371362000F0AA
:10093400CFF82A4B1B79032B3ED801A252F823F09F
:1009440055090008890900086F090008A30900086F
:10095400234B1B78184600F0CBF8204BF0221A806A
:100964001E4B4FF4A0725A8027E01E4B1B7818468A
:1009740000F0BEF8194BF0221A80184B4FF4A07205
:100984005A801AE0184B1B78184600F0B1F8134B44
:100994004FF4A0721A80114BF0225A800DE0134BD1
:1009A4001B78184600F0A4F80C4B4FF4A0721A8080
:1009B4000A4BF0225A8000E000BF084B1B88013B21
:1009C4009AB2064B5B88013B9BB20021002000F0E9
:1009D40029F800BF0837BD4680BD00BF08000020CD
:1009E400E8000020EA000020E9000020EB000020DD
:1009F40080B582B000AF03460A46FB801346BB8035
:100A0400074AFB881380064ABB885380BB88FA8850
:100A1400B988F88800F006F800BF0837BD4680BDE5
:100A2400E400002090B583B000AF044608461146A8
:100A34001A462346FB800346BB800B467B80134645
:100A44003B802A2000F044F8FB881B0A9BB218461E
:100A540000F04EF8FB88DBB29BB2184600F048F871
:100A64007B881B0A9BB2184600F042F87B88DBB2F5
:100A74009BB2184600F03CF82B2000F029F8BB8804
:100A84001B0A9BB2184600F033F8BB88DBB29BB25A
:100A9400184600F02DF83B881B0A9BB2184600F05C
:100AA40027F83B88DBB29BB2184600F021F82C20D3
:100AB40000F00EF800BF0C37BD4690BD80B500AF06
:100AC400012000F005F8322000F0A2FD00BF80BD37
:100AD40080B483B000AF0346FB714FF0D843FA797A
:100AE40092B21A8000BF0C37BD4680BC704700002C
:100AF40080B483B000AF0346FB80044AFB881380B4
:100B040000BF0C37BD4680BC704700BF0008006CB6
:100B140090B484B000AF0446084611461A462346F2
:100B2400FB710346BB710B467B7113463B7100237B
:100B3400FB733B7F002B03D0FB7B43F00403FB736D
:100B44003B7E002B03D0FB7B43F00803FB733B7914
:100B5400002B03D0FB7B43F01003FB737B79002B4A
:100B640003D0FB7B43F02003FB73BB79002B03D042
:100B7400FB7B43F04003FB73FB79002B03D0FB7B2F
:100B840063F07F03FB73FB7B18461037BD4690BCB4
:100B94007047000080B588B000AF0346FB711A4A65
:100BA40007F10C0307CA03C31A800233120C1A702C
:100BB400FB79FB77FB7F0A2B01D90023FB77FB7FB3
:100BC40020333B4413F8143C7B767B7E1846FFF7B6
:100BD400A5FE40F23F13BB83EF237B837B7E002B78
:100BE40002D07B7E022B04D140F23F137B83EF23A0
:100BF400BB837B8BBA8B00210020FFF713FF00BF60
:100C04002037BD4680BD00BF8C37000880B5C4B016
:100C140000AF3B46C7F800310120FFF7BBFF0023BC
:100C2400C7F808310023C7F80C3129E04FF480736A
:100C34000022D7F80811D7F8000100F0E1FBD7F83B
:100C440008310133C7F808310023C7F804310EE036
:100C5400114907F58873A3F58873D7F8042133F88D
:100C640012304B80D7F804310133C7F80431D7F878
:100C740004317F2BECD9D7F80C310133C7F80C3190
:100C8400D7F80C31B3F5167FD0D300BF00BF07F5FA
:100C94008877BD4680BD00BFFE07006C80B500AFFD
:100CA40000F054FC00F09EF8FFF7A6FBFFF7C8FA2B
:100CB40000F0E4F83A48FFF723FEFFF70FFC0120A9
:100CC400FFF768FF00F0C4FA0346002B04D01F208E
:100CD400FFF792FCFFF79AFF0120FFF71FFE0020A9
:100CE400FFF78AFC0A210020FFF782FE2D48FFF758
:100CF4007BFD00F0ADFA0346002B3DD02A48FFF7F8
:100D040073FD2A492A48FFF76FFD2A4B1B6A1946CF
:100D14002948FFF769FD274B5B6919462748FFF708
:100D240063FD244B1B6919462548FFF75DFD214BE4
:100D3400DB6919462348FFF757FD1E4B9B6919468B
:100D44002148FFF751FD1B4BDB6819461F48FFF78D
:100D54004BFD184B5B8919461D48FFF745FD1D489F
:100D6400FFF742FD1C48FFF73FFD1C48FFF73CFD21
:100D74001948FFF739FD04E01948FFF735FD00BFB6
:100D8400FDE741F2883000F043FC0020FFF734FC1B
:100D9400FFF73CFF41F2883000F03AFC9CE700BFCB
:100DA4000000002098370008B4370008F001002044
:100DB400B837000854020020CC370008E037000898
:100DC400F4370008083800081C3800082C380008DC
:100DD4003C3800084C380008683800088838000897
:100DE400A838000880B590B000AF07F11803282296
:100DF4000021184602F02CF83B1D00221A605A60AC
:100E04009A60DA601A610123BB614FF48033FB619D
:100E140000233B620123BB6202237B634FF48033D4
:100E2400BB634FF4E013FB6307F11803184600F0AB
:100E3400A3FE0346002B01D000F019F80F237B60BA
:100E44000223BB600023FB604FF480633B610023FB
:100E54007B613B1D0221184601F010F90346002B6B
:100E640001D000F004F800BF4037BD4680BD80B417
:100E740000AF72B600BF00BFFDE7000080B500AF51
:100E8400174B184A1A60164B4FF482725A60144B6F
:100E940000229A60124B0022DA60114B00221A6180
:100EA4000F4B00225A610E4B4FF400729A610C4BA7
:100EB4000022DA610A4B00221A62094B00225A62AC
:100EC400074B00229A62064B0A22DA62044801F0B8
:100ED40031FA0346002B01D0FFF7C9FF00BF80BDE4
:100EE400F80100200038004080B588B000AF786079
:100EF40007F1100300221A605A609A60DA607B6876
:100F04001B681C4A934231D11B4BDB691A4A43F4D8
:100F14008043D361184BDB6903F48043FB60FB68B7
:100F2400154B9B69144A43F008039361124B9B6968
:100F340003F00803BB60BB684FF420433B6102230A
:100F44007B610323FB6107F1100319460B4800F092
:100F540067FC4FF480433B6100237B610023BB614A
:100F640007F110031946054800F05AFC00BF20376A
:100F7400BD4680BD0038004000100240000C014016
:100F840080B485B000AF154B9B69144A43F001034C
:100F94009361124B9B6903F00103BB60BB680F4B69
:100FA400DB690E4A43F08053D3610C4BDB6903F0D9
:100FB40080537B607B680A4B5B68FB60FB6823F0B3
:100FC400E063FB60FB6843F00073FB60044AFB686A
:100FD400536000BF1437BD4680BC70470010024008
:100FE4000000014080B400AF00BFFDE780B400AF53
:100FF40000BFFDE780B400AF00BFFDE780B400AFE1
:1010040000BFFDE780B400AF00BFFDE780B400AFD0
:1010140000BFBD4680BC704780B400AF00BFBD4672
:1010240080BC704780B400AF00BFBD4680BC704731
:1010340080B500AF00F0D0FA00BF80BD80B586B0A7
:1010440000AF7860144A154BD31A7B617B693B610E
:10105400134B1B68002B02D1114B124A1A60104B20
:101064001A687B6813443A699A4207D201F0F8FE81
:1010740003460C221A604FF0FF3309E0084B1B684B
:10108400FB60074B1A687B681344054A1360FB68CE
:1010940018461837BD4680BD00000120000400003A
:1010A40050020020C803002080B400AF00BFBD463A
:1010B40080BC704780B586B002AF0346FB7107F170
:1010C4000F02F91D642300930123044801F0CFFAB1
:1010D400FB7B18461037BD4680BD00BFF8010020D9
:1010E40080B584B000AF0023FB600023BB60002305
:1010F4007B6000233B6000224FF48051134800F0D2
:1011040023FD9F20FFF7D6FFA520FFF7D3FF03465B
:10111400BB60A520FFF7CEFF03467B60A520FFF749
:10112400C9FF03463B6001224FF48051074800F099
:101134000BFDBB681A047B681B0213433A68134314
:10114400FB60FB6818461037BD4680BD000C0140AB
:1011540090B583B000AF00224FF48051164800F0E0
:10116400F3FC4B20FFF7A6FF0023FB7105E0A5204D
:10117400FFF7A0FFFB790133FB71FB79032BF6D951
:101184000023BB710BE0BC79A520FFF793FF034656
:101194001A460A4B23445A70BB790133BB71BB799D
:1011A400072BF0D901224FF48051034800F0CCFC06
:1011B40000BF0C37BD4690BD000C01405402002016
:1011C40080B584B000AF0346FB710023FB7300229B
:1011D4004FF480511C4800F0B7FCFB79012B0CD173
:1011E4000520FFF767FFA520FFF764FF0346FB73A5
:1011F400164AFB7B82F824301BE0FB79022B0CD1CE
:101204003520FFF757FFA520FFF754FF0346FB7374
:101214000E4AFB7B82F825300BE01520FFF74AFFCE
:10122400A520FFF747FF0346FB73084AFB7B82F8C0
:10123400263001224FF48051034800F085FCFB7BEB
:1012440018461037BD4680BD000C014054020020F2
:1012540080B582B000AF674B012283F8272002E0FB
:10126400012000F0D5F900F0C9F90346632BF7D942
:1012740001224FF48051604800F066FC642000F0C5
:10128400C7F9FFF72DFF786079685C48FEF7C8FF5F
:101294007B68DBB2113B0F2B6BD801A252F823F011
:1012A400691300085B1300084D1300083F1300087E
:1012B4003113000823130008151300080513000850
:1012C400F512000877130008771300087713000855
:1012D400771300087713000877130008E512000855
:1012E400444B0A221A70434B4FF48062DA6146E0A1
:1012F400404B09221A703F4B4FF40072DA613EE012
:101304003C4B08221A703B4B4FF48072DA6136E092
:10131400384B07221A70374B8022DA612FE0354BA5
:1013240006221A70334B4022DA6128E0314B052241
:101334001A70304B2022DA6121E02E4B04221A70FD
:101344002C4B1022DA611AE02A4B03221A70294B23
:101354000822DA6113E0274B02221A70254B04227B
:10136400DA610CE0234B01221A70224B0222DA616B
:1013740005E0204B002283F82720002336E01D4B94
:101384004FF480725A811B4B4FF480521A61194BEF
:10139400DB691B01174A5361164B5B69154A1269D5
:1013A40002FB03F3134A5289B3FBF2F3114AD360ED
:1013B400104B1B691B010F4A93610E4B5B690D4A6D
:1013C400126902FB03F39B0A0A4A1362FFF7C0FE89
:1013D4000120FFF7F5FE0220FFF7F2FE0320FFF7DE
:1013E400EFFE044B002283F8272001231846083718
:1013F400BD4680BD54020020000C0140EC010020D9
:1014040080B584B000AFF860B9607A603B6002E0F8
:10141400012000F0FDF8374B93F82730012BF7D06B
:10142400344B012283F82720324B5B891A463B68F0
:10143400934202D83B68002B02D12E4B5B893B6060
:101444007A683B6813442B4A5289934205D9294B45
:101454005B891A467B68D31A3B60264B5B891A4624
:10146400BB6802FB03F37A681344BB6000224FF4A9
:101474008051214800F068FB1E4B1B78082B09D9CA
:101484000C20FFF717FEBB681B0EDBB21846FFF7F4
:1014940011FE02E00B20FFF70DFEBB681B0CDBB254
:1014A4001846FFF707FEBB681B0ADBB21846FFF7B6
:1014B40001FEBB68DBB21846FFF7FCFD0020FFF716
:1014C400F9FD3B689AB26423F9680C4800F0B6FF52
:1014D40001224FF48051084800F036FB012000F04F
:1014E40097F8044B002283F8272000BF1037BD462D
:1014F40080BD00BF54020020000C0140F801002010
:10150400FFF7D2FD0B480C490C4A002302E0D458E3
:10151400C4500433C4188C42F9D3094A094C00233B
:1015240001E013600432A242FBD301F09FFCFFF7F9
:10153400B5FB7047000000207C0000206C450008CB
:101544007C000020C8030020FEE7000080B500AF47
:10155400084B1B68074A43F010031360032000F094
:101564002BF90F2000F008F8FFF70AFD00231846B6
:1015740080BD00BF0020024080B582B000AF78601B
:10158400124B1A68124B1B7819464FF47A73B3FB4B
:10159400F1F3B2FBF3F3184600F035F90346002BE0
:1015A40001D001230EE07B680F2B0AD80022796852
:1015B4004FF0FF3000F00BF9064A7B6813600023FC
:1015C40000E0012318460837BD4680BD20000020F6
:1015D400280000202400002080B400AF054B1B78B5
:1015E4001A46054B1B681344034A136000BFBD46EB
:1015F40080BC7047280000207C02002080B400AF2B
:10160400024B1B681846BD4680BC70477C02002014
:1016140080B584B000AF7860FFF7F0FFB8607B68F6
:10162400FB60FB68B3F1FF3F05D00A4B1B781A46F9
:10163400FB681344FB6000BFFFF7E0FF0246BB6892
:10164400D31AFA689A42F7D800BF00BF1037BD46D4
:1016540080BD00BF2800002080B485B000AF786052
:101664007B6803F00703FB600C4BDB68BB60BA6864
:101674004FF6FF031340BB60FB681A02BB681343B9
:1016840043F0BF6343F40033BB60044ABB68D360D8
:1016940000BF1437BD4680BC704700BF00ED00E0BA
:1016A40080B400AF044BDB681B0A03F00703184641
:1016B400BD4680BC704700BF00ED00E080B483B03D
:1016C40000AF03463960FB7197F90730002B0ADB42
:1016D4003B68DAB20C4997F907301201D2B20B44D5
:1016E40083F800230AE03B68DAB20849FB7903F087
:1016F4000F03043B1201D2B20B441A7600BF0C371D
:10170400BD4680BC704700BF00E100E000ED00E092
:1017140080B489B000AFF860B9607A60FB6803F008
:101724000703FB61FB69C3F10703042B28BF0423F0
:10173400BB61FB690433062B02D9FB69033B00E060
:1017440000237B614FF0FF32BB6902FA03F3DA43F3
:10175400BB681A407B699A404FF0FF317B6901FAFC
:1017640003F3D9437B680B40134318462437BD4623
:1017740080BC704780B582B000AF78607B68013B65
:10178400B3F1807F01D301230FE00A4A7B68013B58
:1017940053600F214FF0FF30FFF790FF054B0022FD
:1017A4009A60044B07221A60002318460837BD4686
:1017B40080BD00BF10E000E080B582B000AF78606B
:1017C4007868FFF749FF00BF0837BD4680BD80B584
:1017D40086B000AF0346B9607A60FB7300237B6177
:1017E400FFF75EFF78617A68B9687869FFF790FF60
:1017F400024697F90F3011461846FFF75FFF00BF06
:101804001837BD4680BD80B582B000AF7860786877
:10181400FFF7B0FF034618460837BD4680BD0000F9
:1018240080B48BB000AF7860396000237B62002302
:101834003B6279E101227B6A02FA03F3FB613B68B4
:101844001B68FA691340BB61BA69FB699A4240F0AC
:1018540068813B685B68964A93425ED0944A93429F
:1018640075D8944A934258D0924A93426FD8924A78
:10187400934252D0904A934269D8904A93424CD0B2
:101884008E4A934263D88E4A934246D08C4A9342FE
:101894005DD8122B2AD8122B59D801A252F823F062
:1018A4001F190008F91800080B1900084D19000841
:1018B4005319000853190008531900085319000854
:1018C4005319000853190008531900085319000844
:1018D4005319000853190008531900085319000834
:1018E400531900080119000815190008754A934294
:1018F40013D02CE03B68DB683B6229E03B68DB6883
:1019040004333B6224E03B68DB6808333B621FE03E
:101914003B68DB680C333B621AE03B689B68002B36
:1019240002D104233B6213E03B689B68012B05D181
:1019340008233B627B68FA691A6109E008233B6269
:101944007B68FA695A6103E000233B6200E000BF50
:10195400BB69FF2B01D87B6801E07B6804337B61A2
:10196400BB69FF2B02D87B6A9B0002E07B6A083BC1
:101974009B003B617B691A680F213B6901FA03F301
:10198400DB431A40396A3B6901FA03F31A437B6962
:101994001A603B685B6803F08053002B00F0C18041
:1019A400494B9B69484A43F001039361464B9B6949
:1019B40003F00103BB60BB68444A7B6A9B080233A3
:1019C40052F82330FB607B6A03F003039B000F2271
:1019D40002FA03F3DB43FA681340FB607B683C4A7A
:1019E40093421FD07B683B4A934219D07B683A4AA2
:1019F400934213D07B68394A93420DD07B68384AAE
:101A0400934207D07B68374A934201D105230AE009
:101A1400062308E0042306E0032304E0022302E093
:101A2400012300E000237A6A02F00302920093404B
:101A3400FA681343FB6025497B6A9B080233FA6802
:101A440041F823203B685B6803F48013002B06D025
:101A5400254B9A682449BB6913438B6006E0224BEB
:101A64009A68BB69DB43204913408B603B685B6821
:101A740003F40013002B06D01B4BDA681A49BB6928
:101A84001343CB6006E0184BDA68BB69DB431649A5
:101A94001340CB603B685B6803F40033002B25D014
:101AA400114B5A681049BB6913434B6025E000BFD2
:101AB400000032100000311000002210000021103C
:101AC400000012100000111000100240000001403C
:101AD40000080140000C01400010014000140140C6
:101AE40000180140001C014000040140154B5A68D5
:101AF400BB69DB43134913404B603B685B6803F4E9
:101B04008033002B06D00F4B1A680E49BB69134370
:101B14000B6006E00B4B1A68BB69DB4309491340B1
:101B24000B607B6A01337B623B681A687B6A22FA2A
:101B340003F3002B7FF47EAE00BF00BF2C37BD46FD
:101B440080BC70470004014080B483B000AF78606B
:101B54000B467B8013467B707B78002B03D07A88FE
:101B64007B681A6103E07B881A047B681A6100BFF2
:101B74000C37BD4680BC704780B586B000AF786036
:101B84007B68002B01D1012372E27B681B6803F0A0
:101B94000103002B00F08780924B5B6803F00C0379
:101BA400042B0CD08F4B5B6803F00C03082B12D171
:101BB4008C4B5B6803F48033B3F5803F0BD1894BC6
:101BC4001B6803F40033002B6CD07B685B68002B2C
:101BD40068D101234CE27B685B68B3F5803F06D192
:101BE400804B1B687F4A43F4803313602EE07B688C
:101BF4005B68002B0CD17B4B1B687A4A23F480333F
:101C04001360784B1B68774A23F4802313601DE02C
:101C14007B685B68B3F5A02F0CD1724B1B68714ACB
:101C240043F4802313606F4B1B686E4A43F4803384
:101C340013600BE06B4B1B686A4A23F48033136018
:101C4400684B1B68674A23F4802313607B685B68D6
:101C5400002B13D0FFF7D2FC386108E0FFF7CEFC6D
:101C640002463B69D31A642B01D9032300E25D4B7E
:101C74001B6803F40033002BF0D014E0FFF7BEFC24
:101C8400386108E0FFF7BAFC02463B69D31A642BBB
:101C940001D90323ECE1534B1B6803F40033002BFD
:101CA400F0D100E000BF7B681B6803F00203002B47
:101CB40063D04C4B5B6803F00C03002B0BD0494BF7
:101CC4005B6803F00C03082B1CD1464B5B6803F4E0
:101CD4008033002B16D1434B1B6803F00203002B07
:101CE40005D07B681B69012B01D00123C0E13D4B6A
:101CF4001B6823F0F8027B685B69DB0039491343F6
:101D04000B603AE07B681B69002B20D0364B012224
:101D14001A60FFF773FC386108E0FFF76FFC0246B6
:101D24003B69D31A022B01D90323A1E12D4B1B6874
:101D340003F00203002BF0D02A4B1B6823F0F802B7
:101D44007B685B69DB00274913430B6015E0264B76
:101D540000221A60FFF752FC386108E0FFF74EFCDE
:101D640002463B69D31A022B01D9032380E11D4BA0
:101D74001B6803F00203002BF0D17B681B6803F09F
:101D84000803002B3AD07B689B69002B19D0174BB2
:101D940001221A60FFF732FC386108E0FFF72EFCDD
:101DA40002463B69D31A022B01D9032360E10D4B90
:101DB4005B6A03F00203002BF0D0012000F09CFAD0
:101DC4001CE00A4B00221A60FFF718FC38610FE090
:101DD400FFF714FC02463B69D31A022B08D90323EC
:101DE40046E100BF0010024000004242800442422B
:101DF400924B5B6A03F00203002BE9D17B681B68FA
:101E040003F00403002B00F0A6800023FB758B4B2A
:101E1400DB6903F08053002B0DD1884BDB69874AC3
:101E240043F08053D361854BDB6903F08053BB607F
:101E3400BB680123FB75824B1B6803F48073002B82
:101E440018D17F4B1B687E4A43F480731360FFF7FD
:101E5400D5FB386108E0FFF7D1FB02463B69D31A92
:101E6400642B01D9032303E1754B1B6803F48073CE
:101E7400002BF0D07B68DB68012B06D16F4B1B6A0B
:101E84006E4A43F0010313622DE07B68DB68002B8C
:101E94000CD16A4B1B6A694A23F001031362674B36
:101EA4001B6A664A23F0040313621CE07B68DB6848
:101EB400052B0CD1614B1B6A604A43F00403136287
:101EC4005E4B1B6A5D4A43F0010313620BE05B4BFC
:101ED4001B6A5A4A23F001031362584B1B6A574A80
:101EE40023F0040313627B68DB68002B15D0FFF733
:101EF40085FB38610AE0FFF781FB02463B69D31A90
:101F040041F28832934201D90323B1E04B4B1B6A5F
:101F140003F00203002BEED014E0FFF76FFB3861EF
:101F24000AE0FFF76BFB02463B69D31A41F28832A1
:101F3400934201D903239BE0404B1B6A03F0020345
:101F4400002BEED1FB7D012B05D13C4BDB693B4AD9
:101F540023F08053D3617B68DB69002B00F087801A
:101F6400364B5B6803F00C03082B61D07B68DB699C
:101F7400022B46D1334B00221A60FFF73FFB386136
:101F840008E0FFF73BFB02463B69D31A022B01D959
:101F940003236DE0294B1B6803F00073002BF0D181
:101FA4007B681B6AB3F5803F08D1244B5B6823F43C
:101FB40000327B689B68214913434B601F4B5B686D
:101FC40023F474127B68196A7B685B6A0B431B49B0
:101FD40013434B601B4B01221A60FFF70FFB386160
:101FE40008E0FFF70BFB02463B69D31A022B01D929
:101FF40003233DE0114B1B6803F00073002BF0D06A
:1020040035E0104B00221A60FFF7F8FA386108E057
:10201400FFF7F4FA02463B69D31A022B01D90323D2
:1020240026E0064B1B6803F00073002BF0D11EE082
:102034007B68DB69012B07D1012319E00010024002
:1020440000700040600042420B4B5B68FB60FB6821
:1020540003F480327B681B6A9A4206D1FB6803F45E
:1020640070127B685B6A9A4201D0012300E000236E
:1020740018461837BD4680BD0010024080B584B0B4
:1020840000AF786039607B68002B01D10123D0E078
:102094006A4B1B6803F007033A689A4210D9674BEE
:1020A4001B6823F0070265493B6813430B60634BCD
:1020B4001B6803F007033A689A4201D00123B8E091
:1020C4007B681B6803F00203002B20D07B681B682D
:1020D40003F00403002B05D0594B5B68584A43F4C2
:1020E400E06353607B681B6803F00803002B05D092
:1020F400534B5B68524A43F460535360504B5B68E4
:1021040023F0F0027B689B684D4913434B607B6866
:102114001B6803F00103002B40D07B685B68012B34
:1021240007D1474B1B6803F40033002B15D101235F
:102134007FE07B685B68022B07D1414B1B6803F08F
:102144000073002B09D1012373E03D4B1B6803F09E
:102154000203002B01D101236BE0394B5B6823F0B0
:1021640003027B685B68364913434B60FFF746FA0A
:10217400F8600AE0FFF742FA0246FB68D31A41F21C
:102184008832934201D9032353E02D4B5B6803F05B
:102194000C027B685B689B009A42EBD1274B1B685F
:1021A40003F007033A689A4210D2244B1B6823F0C9
:1021B400070222493B6813430B60204B1B6803F062
:1021C40007033A689A4201D0012332E07B681B6816
:1021D40003F00403002B08D0194B5B6823F4E0627E
:1021E4007B68DB68164913434B607B681B6803F00C
:1021F4000803002B09D0124B5B6823F460527B6800
:102204001B69DB000E4913434B6000F021F80246C2
:102214000B4B5B681B0903F00F030A49CB5C22FAE2
:1022240003F3094A1360094B1B681846FFF7A4F926
:10223400002318461037BD4680BD00BF0020024071
:10224400001002400C45000820000020240000205B
:1022540080B487B000AF0023FB600023BB60002381
:102264007B6100237B6000233B611E4B5B68FB604A
:10227400FB6803F00C03042B02D0082B03D027E0E7
:10228400194B3B6127E0FB689B0C03F00F03174AD3
:10229400D35C7B60FB6803F48033002B10D0114BBC
:1022A4005B685B0C03F00103114AD35CBB607B6881
:1022B4000D4A03FB02F2BB68B2FBF3F37B6104E05B
:1022C4007B680C4A02FB03F37B617B693B6102E0A0
:1022D400054B3B6100BF3B6918461C37BD4680BCBB
:1022E400704700BF0010024000127A001C4500082D
:1022F4002C45000800093D0080B485B000AF78602B
:102304000A4B1B680A4AA2FB03235B0A7A6802FB96
:1023140003F3FB6000BFFB685A1EFA60002BF9D17F
:1023240000BF00BF1437BD4680BC704720000020AA
:10233400D34D621080B582B000AF78607B68002B0B
:1023440001D1012376E07B685B6A002B08D17B68AE
:102354005B68B3F5827F09D07B680022DA6105E00F
:102364007B6800221A617B6800225A617B68002224
:102374009A627B6893F85130DBB2002B06D17B68FC
:10238400002283F850207868FEF7AEFD7B680222B5
:1023940083F851207B681B681A687B681B6822F0ED
:1023A40040021A607B685B6803F482727B689B68F6
:1023B40003F404431A437B68DB6803F400631A43A1
:1023C4007B681B6903F002031A437B685B6903F0B3
:1023D40001031A437B689B6903F400731A437B6807
:1023E400DB6903F038031A437B681B6A03F080033C
:1023F40042EA03017B689B6A03F400527B681B6812
:102404000A431A607B689B691A0C7B681B6802F09C
:1024140004025A607B681B68DA697B681B6822F4D3
:102424000062DA617B6800225A657B68012283F8C6
:102434005120002318460837BD4680BD80B588B0BA
:1024440002AFF860B9603B601346FB80FB6893F809
:102454005130DBB2012B01D0022304E1FB685B683D
:10246400B3F5827F12D1FB689B68002B0ED1FB6809
:10247400042283F85120FA883B6800931346BA6813
:10248400B968F86800F0F3F80346ECE0FFF7B6F833
:102494007861BB68002B02D0FB88002B01D101239B
:1024A400E1E0FB6893F85030012B01D10223DAE01C
:1024B400FB68012283F85020FB68042283F8512032
:1024C400FB6800225A65FB68BA689A63FB68FA885D
:1024D4009A87FB68FA88DA87FB6800221A63FB682C
:1024E40000229A86FB680022DA86FB6800221A64BE
:1024F400FB6800225A64FB689B68B3F5004F0FD158
:10250400FB681B681A68FB681B6822F040021A60AB
:10251400FB681B681A68FB681B6822F480421A6017
:10252400FB681B681B6803F04003402B07D0FB6863
:102534001B681A68FB681B6842F040021A60FB685B
:10254400DB68002B70D135E0FB681B689B6803F0E7
:102554000103012B15D1FB681B6803F10C02FB6816
:102564009B6B1278D2B21A70FB689B6B5A1CFB6887
:102574009A63FB68DB8F9BB2013B9AB2FB68DA87F4
:1025840018E0FFF73BF802467B69D31A3A689A428F
:1025940003D83B68B3F1FF3F02D13B68002B09D15C
:1025A400FB68012283F85120FB68002283F8502045
:1025B400032358E0FB68DB8F9BB2002BC4D138E0C7
:1025C400FB681B689B6803F00103012B13D1FB68B4
:1025D4001B68DA68FB689B6B92B21A80FB689B6B82
:1025E4009A1CFB689A63FB68DB8F9BB2013B9AB22F
:1025F400FB68DA8718E0FFF701F802467B69D31A13
:102604003A689A4203D83B68B3F1FF3F02D13B6872
:10261400002B09D1FB68012283F85120FB680022BA
:1026240083F8502003231EE0FB68DB8F9BB2002B52
:10263400C6D17A693968F86800F04AFA0346002B73
:1026440002D0FB6820225A65FB68012283F85120DE
:10265400FB68002283F85020FB685B6D002B01D0DF
:10266400012300E0002318461837BD4680BD80B51D
:102674008AB000AFF860B9607A607B8001237B6226
:10268400FEF7BCFF3862FB6893F85130FB77FB68B8
:102694005B68BB617B88FB82FB7F012B0CD0BB6931
:1026A400B3F5827F06D1FB689B68002B02D1FB7FC8
:1026B400042B01D002237FE1BB68002B05D07B688B
:1026C400002B02D07B88002B01D1012374E1FB682D
:1026D40093F85030012B01D102236DE1FB680122F4
:1026E40083F85020FB6893F85130DBB2042B03D0FD
:1026F400FB68052283F85120FB6800225A65FB68B9
:102704007A689A63FB687A88DA87FB687A889A879A
:10271400FB68BA681A63FB687A88DA86FB687A8889
:102724009A86FB6800221A64FB6800225A64FB68DC
:102734001B681B6803F04003402B07D0FB681B6831
:102744001A68FB681B6842F040021A60FB68DB6889
:10275400B3F5006F7ED1FB685B68002B02D0FB8A67
:10276400012B6CD1FB681B6B1A88FB681B68DA6051
:10277400FB681B6B9A1CFB681A63FB68DB8E9BB2BD
:10278400013B9AB2FB68DA8659E0FB681B689B68D8
:1027940003F00203022B1BD1FB68DB8E9BB2002BE0
:1027A40016D07B6A012B13D1FB681B6B1A88FB685C
:1027B4001B68DA60FB681B6B9A1CFB681A63FB6876
:1027C400DB8E9BB2013B9AB2FB68DA8600237B6204
:1027D400FB681B689B6803F00103012B19D1FB689C
:1027E400DB8F9BB2002B14D0FB681B68DA68FB6894
:1027F4009B6B92B21A80FB689B6B9A1CFB689A6372
:10280400FB68DB8F9BB2013B9AB2FB68DA8701233A
:102814007B62FEF7F3FE02463B6AD31A3A6B9A4296
:102824000DD83B6BB3F1FF3F09D0FB68012283F85D
:102834005120FB68002283F850200323BCE0FB688E
:10284400DB8E9BB2002BA0D1FB68DB8F9BB2002BED
:102854009BD182E0FB685B68002B02D0FB8A012BD2
:1028640071D1FB681A6BFB681B680C3312781A7001
:10287400FB681B6B5A1CFB681A63FB68DB8E9BB2FC
:10288400013B9AB2FB68DA865DE0FB681B689B68D3
:1028940003F00203022B1CD1FB68DB8E9BB2002BDE
:1028A40017D07B6A012B14D1FB681A6BFB681B6879
:1028B4000C3312781A70FB681B6B5A1CFB681A6382
:1028C400FB68DB8E9BB2013B9AB2FB68DA8600237D
:1028D4007B62FB681B689B6803F00103012B19D121
:1028E400FB68DB8F9BB2002B14D0FB681B68DA6893
:1028F400FB689B6BD2B21A70FB689B6B5A1CFB681B
:102904009A63FB68DB8F9BB2013B9AB2FB68DA8760
:1029140001237B62FEF772FE02463B6AD31A3A6BCE
:102924009A4203D83B6BB3F1FF3F02D13B6B002BC0
:1029340009D1FB68012283F85120FB68002283F847
:102944005020032338E0FB68DB8E9BB2002B9CD124
:10295400FB68DB8F9BB2002B97D13A6A396BF8681E
:1029640000F008F90346002B08D0FB6820225A65C2
:10297400FB68002283F8502001231DE0FB689B685C
:10298400002B0AD100233B61FB681B68DB683B61B9
:10299400FB681B689B683B613B69FB68012283F809
:1029A4005120FB68002283F85020FB685B6D002BEC
:1029B40001D0012300E0002318462837BD4680BD1E
:1029C40080B588B000AFF860B9603B601346FB7116
:1029D400FEF714FE0246BB6A9B1A3A681344FB6175
:1029E400FEF70CFEB861394B1B685B011B0DFA69DD
:1029F40002FB03F37B6154E03B68B3F1FF3F50D02B
:102A0400FEF7FCFD0246BB69D31AFA699A4202D961
:102A1400FB69002B3DD1FB681B685A68FB681B6887
:102A240022F0E0025A60FB685B68B3F5827F11D143
:102A3400FB689B68B3F5004F04D0FB689B68B3F553
:102A4400806F07D1FB681B681A68FB681B6822F05B
:102A540040021A60FB689B6AB3F5005F0FD1FB6804
:102A64001B681A68FB681B6822F400521A60FB6832
:102A74001B681A68FB681B6842F400521A60FB6802
:102A8400012283F85120FB68002283F8502003239D
:102A940017E07B69002B01D10023FB617B69013BBB
:102AA4007B61FB681B689A68BB681340BA689A42EA
:102AB4000CBF01230023DBB21A46FB799A429BD157
:102AC400002318462037BD4680BD00BF20000020EB
:102AD40080B586B002AFF860B9607A60FB685B6865
:102AE400B3F5827F11D1FB689B68B3F5004F04D026
:102AF400FB689B68B3F5806F07D1FB681B681A6895
:102B0400FB681B6822F040021A60FB685B68B3F53F
:102B1400827F17D1FB689B68B3F5806F12D17B6805
:102B24000093BB6800220121F868FFF749FF0346C0
:102B3400002B1AD0FB685B6D43F02002FB685A65DA
:102B4400032313E07B680093BB6800228021F868AC
:102B5400FFF736FF0346002B07D0FB685B6D43F09D
:102B64002002FB685A65032300E00023184610374F
:102B7400BD4680BD80B586B002AFF860B9607A60AA
:102B84007B680093BB6801220221F868FFF718FFF5
:102B94000346002B07D0FB685B6D43F02002FB6803
:102BA4005A65032313E07B680093BB6800228021ED
:102BB400F868FFF705FF0346002B07D0FB685B6D41
:102BC40043F02002FB685A65032300E00023184603
:102BD4001037BD4680BD80B584B000AFF860B960E1
:102BE4007A60FB68002B04D0FB689B69B3F5807F97
:102BF40001D1012338E0FB6893F84130DBB2002BAC
:102C040006D1FB68002283F84020F868FDF7EAFB50
:102C1400FB681A68FB6808331946104600F028F868
:102C2400FB681868FB689B681A46B96800F08AF864
:102C3400FB685868FB689A68FB681B6B796800F04E
:102C4400AFF8FB681B68FA68926853F82210FB68B7
:102C54001B68FA68926841F0010143F82210FB688E
:102C6400012283F84120002318461037BD4680BD59
:102C740080B487B000AF786039603B681A687B68BD
:102C840053F822303A68126823F001017B6843F854
:102C940022103B689B68082B02D140237B6101E032
:102CA40000237B613B685A687B691A433B689B68D5
:102CB4001A433B68DB681A433B681B691A433B6849
:102CC4005B691A433B68DB691A433B681B6A1A4316
:102CD4003B685B6A1A433B689B6A1A433B68DB6A3E
:102CE4001A433B681B6B13433B613B689B693A691E
:102CF40013433B613B685B6B3A6913433B61104B85
:102D0400FB60FB6843F48063FB60FB6843F4E023EF
:102D1400FB603B681A687B6853F82220FB68DB433E
:102D240002EA03013B681A683B6919437B6843F86C
:102D34002210002318461C37BD4680BC704700BFD4
:102D44007FFB080080B485B000AFF860B9607A609A
:102D5400BB681A68BB685B681B011A43BB689B6845
:102D64001B021A43BB68DB681B041A43BB681B695C
:102D7400013B1B051A43BB685B69023B1B0642EA25
:102D84000301BB689B697A6801321943FB6843F805
:102D94002210002318461437BD4680BC704700003B
:102DA40080B485B000AFF860B9607A603B603B687E
:102DB400B3F5804F1DD1FB687A6853F82220134B7A
:102DC4001340BA681168BA68526812011143BA68AC
:102DD400926812021143BA6892691143BA68D268C0
:102DE40012040A4343EA0201FB687A6843F822109A
:102DF40005E0FB687A686FF0704143F82210002305
:102E040018461437BD4680BC704700BF0000F0CFA1
:102E140000B59BB0009104916FF0004105910291BF
:102E240005490391694600F099F90022009B1A7044
:102E34001BB05DF804FB00BF0802FFFF13460A46FF
:102E4400014602480068FFF7E3BF00BF2C000020E2
:102E540003460244934200D1704703F8011BF9E78B
:102E6400014B1868704700BF2C00002070B5002685
:102E74000C4D0D4C641BA410A64209D100F078FC43
:102E840000260A4D0A4C641BA410A64205D170BD4D
:102E940055F8043B98470136EEE755F8043B98474C
:102EA4000136F2E7644500086445000864450008FB
:102EB400684500087047704738B50546002940D07A
:102EC40051F8043C0C1F002BB8BFE41800F0DEF8E6
:102ED4001C4A136833B9636014602846BDE838405F
:102EE40000F0DAB8A34208D9206821188B4201BF48
:102EF40019685B6809182160EDE71A465B680BB135
:102F0400A342FAD911685018A0420BD12068014499
:102F1400501883421160E0D118685B68084410605F
:102F24005360DAE702D90C232B60D6E72068211816
:102F34008B4201BF19685B680918216063605460A3
:102F4400CBE738BDC403002070B50F4E0C46316882
:102F5400054611B900F0AAFB30602146284600F06E
:102F6400A5FB431C03D14FF0FF34204670BDC41CA5
:102F740024F00304A042F8D0211A284600F096FB5E
:102F84000130F2D1EFE700BFC00300202DE9F84380
:102F9400CD1C25F0030508350C2D38BF0C25002D5C
:102FA400064601DBA94204D90C2333600020BDE8A6
:102FB400F883DFF8D48000F069F8D8F800301C46B4
:102FC40044BB29463046FFF7BFFF431C044658D193
:102FD400D8F800402746002F43D1002C4BD023685B
:102FE4003946304604EB030900F060FB814542D1C9
:102FF400216830466D1A2946FFF7A6FF01303AD002
:1030040023682B442360D8F800305A6862BBC8F8A0
:1030140000700FE02268521B20D40B2A17D96119C3
:10302400A342256018BF5960636808BFC8F8001040
:1030340062514B60304600F02FF804F10B00231D61
:1030440020F00700C21A1CBF1B1AA350AFE7626826
:10305400A3420CBFC8F800205A60EBE7234664681B
:10306400AEE73C467F68B6E71A465B68A342FBD1ED
:1030740000235360DEE70C233046336000F00CF885
:1030840094E70560D6E700BFC40300200148FFF7BA
:1030940011BF00BFBC0300200148FFF70CBF00BFF5
:1030A400BC0300202DE9F0471F468E688246BE42CD
:1030B4000C4690460B682DD8B1F90C2012F4906F91
:1030C40026D06569096905EB4505A3EB010905EB04
:1030D400D5757B1C4B446D109D4238BF1D4653056E
:1030E40027D52946FFF752FF064660B34A462169B1
:1030F40000F0FAFAA38923F4906343F08003A381D8
:1031040026614E4426603E466561A5EB0905A5602F
:10311400BE4200D93E4632464146206800F0ACFA31
:103124000020A3689B1BA360236833442360BDE88D
:10313400F0872A4600F0E6FA06460028E0D1504619
:103144002169FFF7B9FE0C23CAF80030A3894FF0B8
:10315400FF3043F04003A381E9E700002DE9F04F7D
:1031640098468B8907461B060D4614469DB010D51C
:103174000B6973B94021FFF709FF2860286130B952
:103184000C233B604FF0FF301DB0BDE8F08F4023AF
:103194006B610023099320238DF8293030234FF0ED
:1031A4000109CDF80C80DFF898818DF82A30234688
:1031B4009A4613F8012B0AB1252AF9D1BAEB040B6C
:1031C4000BD05B46224629463846FFF76BFF013099
:1031D40000F0A780099A5A4409929AF80030002B0B
:1031E40000F09F8000234FF0FF32CDE905230AF160
:1031F400010A049307938DF853301A935446052219
:1032040014F8011B4E4800F061FA049AD8B9D006AC
:1032140044BF20238DF85330110744BF2B238DF86E
:1032240053309AF800302A2B15D0544600204FF022
:103234000A0C079A214611F8013B303B092B4BD964
:10324400B0B1079214E0A0EB080309FA03F31343A7
:10325400A2460493D2E7039B191D1B680391002B1C
:10326400BBBF5B4242F0020207930793B8BF0492CC
:1032740023782E2B0AD163782A2B32D1039B023474
:103284001A1D1B68039243EAE3730593DFF8B4A0A5
:1032940003225046217800F019FA38B14022049BE9
:1032A400A0EB0A00824013430134049314F8011B79
:1032B400062225488DF8281000F008FA002836D098
:1032C400224B1BBB039B073323F0070308330393F1
:1032D400099B334409936AE70C4601200CFB023234
:1032E400A8E700234FF00A0C194601340593204641
:1032F40010F8012B303A092A03D9002BC6D00591C6
:10330400C4E7044601230CFB0121F0E703AB00935F
:103314002A4638460E4B04A9AFF30080421C0646E9
:10332400D6D1AB895B063FF52DAF09982CE703ABEB
:1033340000932A463846064B04A900F07DF8EDE7D1
:103344002E450008344500083845000800000000F8
:10335400A93000082DE9F047164698468A680B699B
:1033640007469342B8BF1346336091F843200C4696
:10337400DDF820900AB1013333602368990642BF17
:10338400336802333360256815F0060506D104F16D
:10339400190AE36832689B1AAB422BDC94F8433079
:1033A4002268003B18BF0123920630D441463846B8
:1033B40004F14302C847013023D02368226903F093
:1033C4000603042B14BF002533684FF0000608BF22
:1033D400E56804F11A0408BFED1A54F8123C08BF5A
:1033E40025EAE5759342C4BF9B1AED18B5421AD17C
:1033F400002008E00123524641463846C8470130C0
:1034040003D14FF0FF30BDE8F0870135C1E730202C
:10341400E11881F843005A1C94F845102244023301
:1034240082F84310C2E70123224641463846C84782
:103434000130E6D00136D9E72DE9FF470F7E9146EA
:10344400782F80460C469A460C9E01F1430207D819
:10345400622F0AD8002F00F0D380582F00F0BA80D2
:1034640004F1420684F842703AE0A7F16303152B95
:10347400F6D801A151F823F0D5340008E934000846
:1034840065340008653400086534000865340008B4
:10349400E934000865340008653400086534000820
:1034A40065340008EB35000813350008A53500081D
:1034B40065340008653400080D36000865340008DA
:1034C400133500086534000865340008AD3500087C
:1034D40033681A1D1B68326004F1420684F84230D6
:1034E40001239EE033682068191D3160060601D56A
:1034F4001D6803E04506FBD5B3F90050002D03DA3F
:103504002D236D4284F843300A23594811E0216881
:103514003368080653F8045B02D4490648BFADB2C9
:103524006F2F336014BF0A2308235148002184F805
:1035340043106668002EA8BF2168A660A4BF21F0CE
:10354400040121600DB9002E4BD01646B5FBF3F1F2
:1035540003FB1157C75D06F8017D2F46BB420D469C
:10356400F4D9082B0BD12368DF0708D523696168D8
:103574009942DEBF302306F8013C06F1FF36921B68
:1035840022614B4621464046CDF800A003AAFFF72E
:10359400E1FE01304AD14FF0FF3004B0BDE8F087BE
:1035A400236843F0200323607827324884F8457069
:1035B400236831681F0651F8045B02D45F0648BFD4
:1035C400ADB23160D90744BF43F0200323601DB17D
:1035D4001023ABE72648E9E7236823F020032360A0
:1035E400F6E71646BDE733682568181D6169306043
:1035F4002E061B6801D5196002E06806FBD5198008
:10360400002316462361BCE7336800211A1D32608B
:103614001E686268304600F059F808B1801B60608B
:1036240063682361002384F84330AAE7324649469D
:1036340040462369D0470130ADD023689B0713D49B
:10364400E068039B9842B8BF1846A6E701233246B8
:1036540049464046D04701309DD00135E36803997F
:103664005B1AAB42F2DCEBE7002504F11906F5E73F
:103674003F45000850450008884210B501EB02049C
:1036840002D98442234607D8431EA14208D011F828
:10369400012B03F8012FF8E7014602448A4200D1C6
:1036A40010BD13F8014D02F8014DF7E738B50023BA
:1036B400054D044608462B60FDF7C0FC431C02D1AF
:1036C4002B6803B1236038BDB8030020034610B54E
:1036D400C9B202449342184601D1002003E00478A1
:1036E40001338C42F6D110BD0A44914200F1FF33FC
:1036F40000D1704710B511F8014B914203F8014F06
:10370400F9D110BD2DE9F041804615460C4621B98A
:103714001146BDE8F041FFF739BC2AB9FFF7CCFBED
:1037240000242046BDE8F08100F01AF885420646E0
:1037340002D8B5EB500FF4D829464046FFF726FCD3
:1037440007460028ECD0B5422A46214628BF324617
:10375400FFF7CAFF21464046FFF7AEFB3C46E0E7D1
:1037640051F8043C181F002BBCBF0B58C0187047FD
:10377400F8B500BFF8BC08BC9E467047F8B500BF5A
:08378400F8BC08BC9E4670472A
:10378C00010200030301010101010100494E4954EA
:10379C00204F462053504920464C41534820573225
:1037AC0035517878203A00004F4B0A00464143547B
:1037BC004F5259204944203A20307825730A000092
:1037CC004341504143495459203A2564204B420A05
:1037DC0000000000534543544F5220434F554E5464
:1037EC00203A25640A000000534543544F5220539D
:1037FC00495A45203A25640A00000000424C4F43C8
:10380C004B20434F554E54203A25640A00000000CB
:10381C00424C4F434B2053495A45203A25640A00E9
:10382C005041474520434F554E54203A25640A00D9
:10383C00504147452053495A45203A25640A000017
:10384C004441544120455849535420494E20455831
:10385C00542E20464C4153480A0000002D2D2D2D8E
:10386C002D2D2D2D2D2D2D2D2D2D2D2D2D2D2D2D7C
:10387C002D2D2D2D2D2D2D0A000000002D20205238
:10388C00454144204558542E202053504920204671
:10389C004C41534820202D0A000000004552524F45
:1038AC00520A0000000000000000000000000000B0
:1038BC0000000000000000000000000000000000FC
:1038CC000000000000000C000C000C000C000C00B0
:1038DC000C000C000C0000000C00000000000000AC
:1038EC0000000000000000001DC01DC00880088002
:1038FC000880000000000000000000000000000034
:10390C000000000000000D800D800D800D803FC078
:10391C001B003FC01B001B001B001B000000000015
:10392C000000000004001F803180318038001E0030
:10393C000F000380318031803F0004000400000040
:10394C0000000000000018002400240018C00780AC
:10395C001E00318002400240018000000000000087
:10396C0000000000000000000F00180018001800F4
:10397C000C001D80370033001D800000000000008B
:10398C000000000000000000070007000200020019
:10399C000200000000000000000000000000000019
:1039AC000000000000000300030006000E000C00E5
:1039BC000C000C000C000E000600030003000000BD
:1039CC00000000000000180018000C0006000600A3
:1039DC0006000600060006000C001C001800000083
:1039EC00000000000000060006003FC03FC00F00B2
:1039FC001F80198000000000000000000000000083
:103A0C00000000000000000000000400040004009E
:103A1C003F800400040004000000000000000000CF
:103A2C00000000000000000000000000000000008A
:103A3C00000000000000060004000C000800080054
:103A4C00000000000000000000000000000000006A
:103A5C003F8000000000000000000000000000009B
:103A6C00000000000000000000000000000000004A
:103A7C000000000000000C000C0000000000000022
:103A8C000000000000C000C00180018003000300A2
:103A9C0006000C000C00180018003000300000006C
:103AAC000000000000000E001B00318031803180CE
:103ABC003180318031801B000E00000000000000BE
:103ACC0000000000000006003E0006000600060094
:103ADC0006000600060006003FC0000000000000C3
:103AEC000000000000000F001980318031800300BD
:103AFC0006000C00180030003F80000000000000A1
:103B0C000000000000003F006180018003001F00E6
:103B1C0003800180018061803F00000000000000F4
:103B2C00000000000000070007000F000B001B0046
:103B3C00130033003F8003000F80000000000000E2
:103B4C000000000000001F801800180018001F0063
:103B5C0011800180018021801F0000000000000006
:103B6C0000000000000007801C0018003000370027
:103B7C0039803180318019800F0000000000000076
:103B8C000000000000007F00430003000600060058
:103B9C00060006000C000C000C00000000000000E9
:103BAC000000000000001F003180318031801F00B8
:103BBC0031803180318031801F0000000000000016
:103BCC000000000000001E00330031803180338083
:103BDC001D800180030007003C0000000000000075
:103BEC000000000000000000000000000C000C00B1
:103BFC000000000000000C000C00000000000000A1
:103C0C0000000000000000000000000003000300A2
:103C1C00000000000000060004000800080000007E
:103C2C00000000000000000000C0030004001800A9
:103C3C00600018000400030000C000000000000039
:103C4C0000000000000000000000000000007FC029
:103C5C0000007FC000000000000000000000000019
:103C6C0000000000000000006000180004000300C9
:103C7C0000C00300040018006000000000000000F9
:103C8C0000000000000000001F0031803180018026
:103C9C0007000C000C0000000C00000000000000ED
:103CAC000000000000000E00110021002100270080
:103CBC00290029002700200011000E000000000040
:103CCC0000000000000000003F000F0009001980F8
:103CDC0019801F8030C030C079E000000000000067
:103CEC0000000000000000007F0031803180318036
:103CFC003F003180318031807F00000000000000E7
:103D0C0000000000000000001F4030C06040600058
:103D1C0060006000604030801F0000000000000068
:103D2C0000000000000000007F00318030C030C077
:103D3C0030C030C030C031807F0000000000000077
:103D4C0000000000000000007F80308030803200D6
:103D5C003E003200308030807F8000000000000088
:103D6C0000000000000000007FC0304030403200F6
:103D7C003E003200300030007C00000000000000EB
:103D8C0000000000000000001E8031806080600098
:103D9C00600067C0618031801F00000000000000DF
:103DAC0000000000000000007BC0318031803180B9
:103DBC003F803180318031807BC0000000000000EA
:103DCC0000000000000000003FC0060006000600D6
:103DDC0006000600060006003FC0000000000000C0
:103DEC0000000000000000001FC0030003000300DF
:103DFC0003006300630063003E000000000000004D
:103E0C0000000000000000007BC031803300360051
:103E1C003C003E003300318079C0000000000000FF
:103E2C0000000000000000007E00180018001800C0
:103E3C0018001840184018407FC000000000000017
:103E4C000000000000000000E0E060C071C07BC01A
:103E5C006AC06EC064C060C0FBE0000000000000DF
:103E6C00000000000000000073C0318039803D80EC
:103E7C00358037803380318079800000000000006D
:103E8C0000000000000000001F00318060C060C016
:103E9C0060C060C060C031801F00000000000000E6
:103EAC0000000000000000007F0031803180318074
:103EBC0031803F00300030007E0000000000000028
:103ECC0000000000000000001F00318060C060C0D6
:103EDC0060C060C060C031801F000CC01F8000003B
:103EEC0000000000000000007F0031803180318034
:103EFC003E003300318031807CE000000000000087
:103F0C0000000000000000001F803180318038006C
:103F1C001F000380318031803F0000000000000052
:103F2C0000000000000000007F804C804C804C8022
:103F3C000C000C000C000C003F0000000000000006
:103F4C0000000000000000007BC031803180318017
:103F5C0031803180318031801F0000000000000072
:103F6C0000000000000000007BC0318031801B008D
:103F7C001B001B000A000E000E00000000000000D9
:103F8C000000000000000000FBE060C064C06EC0D8
:103F9C006EC02A803B803B80318000000000000016
:103FAC0000000000000000007BC031801B000E00F0
:103FBC000E000E001B0031807BC0000000000000D2
:103FCC00000000000000000079E030C019800F00F4
:103FDC0006000600060006001F800000000000001E
:103FEC0000000000000000003F802180230006003C
:103FFC0004000C00188030803F800000000000009E
:10400C000000000000000780060006000600060005
:10401C0006000600060006000600060007800000E9
:10402C000000000030003000180018000C000C00DC
:10403C000600030003000180018000C000C00000E6
:10404C000000000000001E0006000600060006002E
:10405C000600060006000600060006001E00000012
:10406C000000000004000A000A00110020802080DB
:10407C000000000000000000000000000000000034
:10408C000000000000000000000000000000000024
:10409C000000000000000000000000000000000014
:1040AC000000FFE008000400020000000000000017
:1040BC0000000000000000000000000000000000F4
:1040CC000000000000000000000000001F00018044
:1040DC0001801F80318033801DC000000000000073
:1040EC000000000000007000300030003700398004
:1040FC0030C030C030C039807700000000000000B4
:10410C000000000000000000000000001E80318054
:10411C0060806000608031801F00000000000000A3
:10412C000000000000000380018001801D803380AE
:10413C0061806180618033801DC000000000000040
:10414C000000000000000000000000001F00318093
:10415C0060C07FC0600030C01F8000000000000005
:10416C0000000000000007E00C000C003F800C0079
:10417C000C000C000C000C003F8000000000000044
:10418C000000000000000000000000001DC0338093
:10419C0061806180618033801D80018001801F00FF
:1041AC000000000000007000300030003700398043
:1041BC0031803180318031807BC0000000000000F4
:1041CC000000000000000600060000001E000600B3
:1041DC0006000600060006003FC0000000000000BC
:1041EC000000000000000600060000003F00030075
:1041FC0003000300030003000300030003003E0060
:10420C0000000000000070003000300037803600E5
:10421C003C003C003600330077C00000000000007A
:10422C000000000000001E0006000600060006004C
:10423C0006000600060006003FC00000000000005B
:10424C000000000000000000000000007F8036C06D
:10425C0036C036C036C036C076E000000000000024
:10426C000000000000000000000000007700398012
:10427C0031803180318031807BC000000000000033
:10428C000000000000000000000000001F00318052
:10429C0060C060C060C031801F00000000000000E2
:1042AC0000000000000000000000000077003980D2
:1042BC0030C030C030C039803700300030007C0056
:1042CC000000000000000000000000001DC0338052
:1042DC0061806180618033801D800180018007C016
:1042EC000000000000000000000000007B801CC0EB
:1042FC0018001800180018007F00000000000000D3
:10430C000000000000000000000000001F80318051
:10431C003C001F00038031803F00000000000000C3
:10432C000000000000001800180018007F001800A2
:10433C0018001800180018800F0000000000000082
:10434C0000000000000000000000000073803180BD
:10435C0031803180318033801DC0000000000000AE
:10436C000000000000000000000000007BC0318055
:10437C0031801B001B000E000E000000000000002E
:10438C00000000000000000000000000F1E060C030
:10439C0064C06EC03B803B80318000000000000098
:1043AC000000000000000000000000007BC01B00AB
:1043BC000E000E000E001B007BC000000000000071
:1043CC0000000000000000000000000079E030C098
:1043DC00198019800B000F00060006000C003E002F
:1043EC000000000000000000000000003F80218061
:1043FC0003000E00180030803F8000000000000019
:10440C0000000000000006000C000C000C000C006A
:10441C000C0018000C000C000C000C000600000036
:10442C000000000000000600060006000600060062
:10443C000600060006000600060006000600000046
:10444C000000000000000C0006000600060006003C
:10445C000600030006000600060006000C00000023
:10446C000000000000000000000000000000180028
:10447C002480030000000000000000000000000089
:10448C00000000002800CF03008330ED0464031209
:10449C0081E803850179CB05392C003402F7012022
:1044AC00EA020000C00126C10111C502353EC70158
:1044BC00BE3601003A0155B102001BF2010826017B
:1044CC0001E00F1F1A180A0F065687320A07020757
:1044DC000500E10F0025270510093A784D05180D48
:1044EC00383A1F2A04000000EF2B040000013FB7EC
:1044FC000107B6040A822700117829642C000000F9
:10450C000000000000000000010203040607080977
:10451C0002030405060708090A0B0C0D0E0F1010F8
:10452C000102232D302B2000686C4C00656667451A
:10453C00464700303132333435363738394142430F
:10454C0044454600303132333435363738396162C0
:08455C006364656600000000C5
:044564000902000840
:04456800E501000861
:10456C00B03800080B001000F00040010001010001
:10457C00E0FF00000000000000000020010000002F
:10458C0000127A0010000000010000003000002032
:10459C000000000080020020E802002050030020F0
:1045AC0000000000000000000000000000000000FF
:1045BC0000000000000000000000000000000000EF
:1045CC0000000000000000000000000000000000DF
:0C45DC00000000000000000000000000D3
:0400000508001505D5
:00000001FF
